:10000000CDC1E7C1E6C1A0C4E0C420C5E2C1E1C1E1
:10001000E0C1DFC1DEC1DDC1DCC1DBC1DAC1D9C1F4
:10002000D8C1D7C1D6C1D5C1D4C1D3C1D2C1D1C124
:10003000D0C1CFC12501770149017701870177013F
:100040008701650400009001ED017701B801770197
:10005000ED01BB00B801BB0087017701B801770152
:10006000ED01650400009001B8017701ED01770111
:10007000ED017701ED01BB00B801BB0087017701FD
:100080008701770187016504000090012501BB000D
:1000900087017701B8017701ED017701B8016504A7
:1000A000000090018701BB00ED017701B8017701E5
:1000B00087017701ED013202B801BB0087017701AA
:1000C000000090014B02EE02ED017701B8017701CB
:1000D0008701EE02870165042501490049014900B5
:1000E0005D01490087014900B80126014B024C021D
:1000F0004B024C024B0226010B0226014B02260149
:100100009302720300002601930226019302260146
:100110004B0226019302260193027203000026017E
:1001200093022601930226014B0226019302260127
:10013000BA024C02BA02260193022601930226015A
:100140004B022601B801720300002601B801260106
:100150004B024C024B024C024B0226010B022601C1
:100160004B0226019302720349014A01870194025E
:1001700087014A018701940287014A01B8014A01B7
:10018000B8014A01B801DE0349014A01870194021E
:1001900087014A018701940287014A01B8014A0197
:1001A000B8014A01B801DE0387014A01B80194028F
:1001B000B8019402B8014A01B8014A01B801940299
:1001C00087014A01870194025D014A018701DE032C
:1001D0008701DE03E900210225011001250110013C
:1001E000E9001001E9001001C30042040000100101
:1001F0002501100105011001250110013701100131
:100200002501100105011001E9001001250110016F
:1002100025011001E9001001E9001001C3004204AA
:100220000000100125011001050110012501100138
:10023000370110012501100105011001E90010012D
:1002400025011001E9001001000010012501100135
:10025000050110012501100105011001E90010013F
:1002600025011001DC00100100001001E90010015F
:10027000DC001001E9001001DC001001E9001001B0
:10028000C3004204CF00F0000501F0003701F00088
:1002900037017800CF00780000007800CF007800A8
:1002A0000501F0003701F0003701F000CF00F00049
:1002B0002501F0005D01F0005D017800E9007800A3
:1002C00000007800250178005D01F000D201F00007
:1002D0009F01F0008701F0003701F0000501F000F8
:1002E0000501780087017800000078008701780018
:1002F0003701F0000501F0000501F0002501F000D4
:10030000E900F000C300F000C30078002501780088
:100310000000780025017800E900F000C300F0003B
:10032000C300F00015015E0171015E019F015E01D5
:10033000B8015E019F015E0171015E01250120038C
:1003400000005E0125015E0171015E019F015E01F9
:10035000B8015E019F015E0171015E01150120037C
:10036000E900F401B800F4019B00F4017400B0044A
:10037000BA027D0070037D001604F4010501FA0045
:100380005D017D00B8017D000B027D0000007D0055
:10039000B8017D0000007D000B027D0011241FBE0E
:1003A000CFEFCDBFDFE3DEBF2EE3A4E0BEE301C0AD
:1003B0001D92AC35B207E1F71EE3A0E0BEE3E8E32F
:1003C000F0E102C005900D92A430B107D9F7EFD14A
:1003D00031C616CE81E090E02091043E3091053E7A
:1003E0002130310511F080E090E008958091323E97
:1003F0009091333E892B31F08091343E9091353E7F
:10040000892B79F480912E3E90912F3E892B61F0BB
:100410008091303E9091313E892B49F081E090E00F
:10042000089580E090E0089582E090E0089582E0F1
:1004300090E008950F931F93CF93DF9382E090E0B5
:100440008093043E9093053EC3E0D0E00AE01EE3B3
:10045000F801808183D3FFE72AE186E0F150204054
:100460008040E1F700C0000080E078D39FE7EAE138
:10047000F6E09150E040F040E1F700C00000219725
:1004800039F7C3D566E070E0FDD482309105C9F03C
:100490002CF4009751F0019771F02AC08430910537
:1004A000E1F0ACF00597F9F023C06FE070E084E272
:1004B00093E041D41DC068E270E084E892E03BD450
:1004C00017C06CE270E084ED91E035D411C06BE1AF
:1004D00070E088E691E02FD40BC064E270E088ED14
:1004E00090E029D405C069E270E084E390E023D471
:1004F00011D4DF91CF911F910F91089583E090E087
:100500008093043E9093053E64E070E080E693E0C3
:1005100012D400D408950F931F93CF93DF93161630
:100520001706A4F48C01EC01660F771F060F171F46
:100530006CD583709078992324F401978C6F9F6F0A
:10054000019689939993C017D10791F7DF91CF91C5
:100550001F910F910895EF92FF920F931F93CF93E6
:10056000DF93161617061CF5EC01660F771F7C014A
:10057000E60EF71E8E018991999115D32FE181EA3C
:1005800097E0215080409040E1F700C00000F80162
:100590008081918125D3FFE121EA87E0F15020405D
:1005A0008040E1F700C00000CE15DF0519F748D400
:1005B000DF91CF911F910F91FF90EF9008955ED141
:1005C0002AE28CE29AE0215080409040E1F700005E
:1005D0006091363E7091373E6F5F7F4F6093363E3D
:1005E0007093373E1092083E1092093E8CE09EE3D5
:1005F000B2DF2AE684E091E0215080409040E1F7AC
:1006000000C068E070E08CE793E095D31FD10895B7
:10061000EC0134D169D2FDD4F4D381E090E0809331
:10062000043E9093053E10920A3E10920B3E1092AB
:10063000363E1092373EC0932C3ED0932D3E2097ED
:1006400019F0219741F00DC088E090E08093063EBC
:100650009093073E06C080E190E08093063E909321
:10066000073E80E07BD26091063E7091073E8CE0B1
:100670009EE351DFA4DFC0E5D0E052D388818160E2
:100680008883889588818E7F8883F7CFCF93DF9387
:10069000EC014CD38091043E9091053E019749F0C6
:1006A000CC0FDD1FC25DD14C81E090E0888399833F
:1006B00003C0CE0192D377D2DF91CF910895CF932B
:1006C000DF93EC0133D38091043E9091053E019776
:1006D00039F0CC0FDD1FC25DD14C1882198255C094
:1006E000CE017BD37DD22091083E3091093EC901D5
:1006F000880F991FFC01E85CF14CC083D183FC0199
:10070000E45FF14C80819181C817D907E9F52F5F2B
:100710003F4F2093083E3093093E8091363E9091A2
:10072000373E2817390789F580910A3E90910B3E94
:10073000019680930A3E90930B3E10D22091363E54
:100740003091373E8091063E9091073E2817390739
:1007500059F42FE38DE093E0215080409040E1F781
:1007600000C0000067DE11C02FE38DE093E0215050
:1007700080409040E1F700C0000063E070E080E757
:1007800093E0D9D21CDF01C0B9DEDF91CF9108958B
:10079000C2D143D26FE573E086E493E035D078941C
:1007A000E0E5F0E08081897F826080830895F0DF5A
:1007B000C0E5D0E0888181608883889588818E7FBC
:1007C000888308DE892BB1F711DE8C01029791F343
:1007D00024E588E594E1215080409040E1F700C095
:1007E00000C004DE0817190729F70115110521F0CB
:1007F0000130110529F0DECF80E090E009DFDACF8B
:1008000081E090E005DFD6CFA0E4B4E021E01296CD
:100810002C931297E0E2F4E024E0228322E0129687
:100820002C93129728E0228329E050962C9350971E
:10083000228B51962C93238B80935A3E90935B3E50
:100840006093583E7093593E78940895A0E4B4E0C4
:1008500050968C915097816050968C935097E0E21F
:10086000F4E082898160828B51968C9151978160EE
:1008700051968C9383898160838B0895A0E4B4E0C2
:1008800050968C9150978E7F50968C935097E0E2C3
:10089000F4E082898E7F828B51968C9151978E7F66
:1008A00051968C9383898E7F838B08958130910537
:1008B00089F01CF4892B39F028C08230910599F019
:1008C0000397C9F022C09091480481E08927817084
:1008D00090E00895809128048695869591E0892777
:1008E000817090E0089580914804869591E0892771
:1008F000817090E00895809128048695869586956C
:1009000091E08927817090E0089580E090E008955B
:10091000CF93DF93EC018DE890E20197F1F70000AF
:10092000CE01C4DF892B39F0E0915A3EF0915B3E55
:10093000CE01099506C0E091583EF091593ECE0196
:100940000995DF91CF9108951F920F920FB60F92E4
:1009500011242F933F934F935F936F937F938F93C4
:100960009F93AF93BF93EF93FF938091090480FF10
:1009700003C080E090E0CCDF8091090482FF03C0D7
:1009800081E090E0C5DF8091090481FF03C082E02F
:1009900090E0BEDF8091090483FF03C083E090E014
:1009A000B7DF8FEF80930904FF91EF91BF91AF9173
:1009B0009F918F917F916F915F914F913F912F9177
:1009C0000F900FBE0F901F9018951F920F920FB6A9
:1009D0000F9211242F933F934F935F936F937F93C5
:1009E0008F939F93AF93BF93EF93FF9380912904CD
:1009F00080FF03C080E090E08BDF8091290482FFBC
:100A000003C081E090E084DF8091290481FF03C06E
:100A100082E090E07DDF8091290483FF03C083E0C2
:100A200090E076DF8FEF80932904FF91EF91BF91E3
:100A3000AF919F918F917F916F915F914F913F9176
:100A40002F910F900FBE0F901F9018951F920F922D
:100A50000FB60F9211242F933F934F935F936F9391
:100A60007F938F939F93AF93BF93EF93FF93809167
:100A7000490480FF03C080E090E04ADF8091490490
:100A800082FF03C081E090E043DF8091490481FF51
:100A900003C082E090E03CDF8091490483FF03C003
:100AA00083E090E035DF8FEF80934904FF91EF9171
:100AB000BF91AF919F918F917F916F915F914F9176
:100AC0003F912F910F900FBE0F901F90189570E0DF
:100AD000FC0160837183E0E0F0E1808791878DE91C
:100AE00084BF83E080830895CF93DF9380910114C6
:100AF000D82F80E0C82F80910014C82B21966D2F2D
:100B000081E094E1E4DF6C2F80E094E1E0DFCE014E
:100B1000DF91CF910895E0E0F4E030E4318320E804
:100B2000218382E0818394E09183368326838683C8
:100B3000968338E0318320E12183A0E2B4E091E0A4
:100B400011969C93119711968C9311973683268357
:100B500016969C93169716968C93089580FF04C062
:100B600090E49093050403C090E49093060481FF01
:100B700004C090E89093050403C090E890930604A5
:100B800082FF04C092E09093050403C092E090932A
:100B9000060483FF04C084E080930504089584E084
:100BA0008093060408958130910571F01CF4892B1F
:100BB00039F008958230910559F0039769F008954E
:100BC00088E080930504089580E1809305040895EA
:100BD00081E080932504089582E0809325040895A0
:100BE0008130910571F01CF4892B39F00895823021
:100BF000910559F0039769F0089588E08093060401
:100C0000089580E180930604089581E0809326048E
:100C1000089582E0809326040895E0E0F4E080E205
:100C20008183868308954F925F926F927F928F9215
:100C30009F92AF92BF92CF92DF92EF92FF920F936B
:100C40001F93CF93DF936B017C0129013A0160E48C
:100C500072E48FE090E0A701960127D149015A0183
:100C600068E076E482E090E0A70196011ED1690178
:100C70007A01A8EEB3E0A301920133D18B019C016C
:100C80001616170618061906A4F540E050E0BA013A
:100C9000E0E0F4E0C0E2DC2FD5831C141D041E0448
:100CA0001F0404F580E090E0DC0100000196A11D26
:100CB000B11DC816D906EA06FB06B9F715C0000033
:100CC0000196A11DB11DC816D906EA06FB06B9F7A3
:100CD000480D591D6A1D7B1D401751076207730798
:100CE000DCF207C0C683F4CFC68380E090E0DC016D
:100CF000E6CFDF91CF911F910F91FF90EF90DF90A2
:100D0000CF90BF90AF909F908F907F906F905F90AB
:100D10004F90089588ED84BF81E080930001FFCF5C
:100D200088ED84BF8BE080930001089588ED84BF37
:100D3000109200010895CF92DF92EF92FF920F93ED
:100D40001F93CF93DF93161617060CF03DC07B015F
:100D5000C82FD92F00E010E00F2EFAE0CF2ED12CB3
:100D6000F02DFE0165917491FE013296259134912A
:100D7000822F932F1616170634F0B60183D016165D
:100D800017068CF01BC083ED90E30197F1F700C0CC
:100D90000000032E000C440B550B072E000C880B93
:100DA000990B41DF0BC080E090E0EDE8F0E2319775
:100DB000F1F70000019686179707B9F70F5F1F4FED
:100DC0002496E016F10669F6DF91CF911F910F91FD
:100DD000FF90EF90DF90CF9008958230910541F021
:100DE0008330910541F0019749F481E090E0089546
:100DF00082E090E0089583E090E0089580E090E044
:100E00000895CF93DF93C3E0D0E08FE0A7DE2FE714
:100E10008AE196E0215080409040E1F700C0000058
:100E200080E09CDE2FE78AE196E0215080409040F0
:100E3000E1F700C00000219741F7DF91CF910895BD
:100E400080E090E0B0DE83E090E0ADDE82E090E014
:100E5000AADE81E090E0A7DE2FE38DE093E0215051
:100E600080409040E1F700C0000080E090E0B8DEF4
:100E700083E090E0B5DE82E090E0B2DE81E090E0D9
:100E8000AFDE089597FB072E16F4009406D077FD89
:100E900008D031D007FC05D03EF4909581959F4F46
:100EA0000895709561957F4F0895052E97FB16F470
:100EB00000940FD057FD05D032D007FC02D046F485
:100EC00008C050954095309521953F4F4F4F5F4F4B
:100ED000089590958095709561957F4F8F4F9F4FA6
:100EE00008953FD0A59F900DB49F900DA49F800DB5
:100EF000911D11240895AA1BBB1B51E107C0AA1F15
:100F0000BB1FA617B70710F0A61BB70B881F991FAA
:100F10005A95A9F780959095BC01CD010895A1E25D
:100F20001A2EAA1BBB1BFD010DC0AA1FBB1FEE1F63
:100F3000FF1FA217B307E407F50720F0A21BB30BAE
:100F4000E40BF50B661F771F881F991F1A9469F72A
:100F500060957095809590959B01AC01BD01CF0186
:100F60000895A29FB001B39FC001A39F01D0B29F7B
:100F7000700D811D1124911D08958F929F92AF9243
:100F8000BF92CF92DF92EF92FF92CF93DF93EC016B
:100F9000688179818A819B8161157105810591053F
:100FA00021F464E279ED8BE597E02DE133EF41E048
:100FB00050E07BDF49015A019B01AC01A7EAB1E493
:100FC00090DF6B017C01ACEEB4EFA50194012ED053
:100FD000DC01CB018C0D9D1DAE1DBF1DB7FF03C0F5
:100FE0000197A109B04888839983AA83BB839F771F
:100FF000DF91CF91FF90EF90DF90CF90BF90AF90B7
:101000009F908F900895B9DF089580E09EE3B5DF4B
:101010000895A0E0B0E08093003E9093013EA0933D
:10102000023EB093033E0895B7FF5BCF5ADF821BA9
:08103000930B0895F894FFCF23
:0410380001000000B3
:00000001FF
