:1000000019C033C032C031C271C2B1C22EC02DC0BE
:100010002CC02BC02AC029C028C027C026C025C09C
:1000200024C023C022C021C020C01FC01EC01DC0CC
:100030001CC01BC011241FBECFEFCDBFDFE3DEBF4E
:100040002EE3A4E0BEE301C01D92A133B207E1F7A5
:100050001EE3A0E0BEE3ECE9F9E002C005900D92DA
:10006000A430B107D9F77BD197C4CACF81E090E023
:100070002091043E3091053E2130310511F080E0A1
:1000800090E008958091093E90910A3E009759F0C2
:1000900031E020E080910B3E90910C3E892B09F4D9
:1000A00030E0832F922F08950F931F93CF93DF9308
:1000B00016161706A4F48C01EC01660F771F060FC5
:1000C000171F55D483709078992324F401978C6F6F
:1000D0009F6F019689939993C017D10791F7DF918C
:1000E000CF911F910F910895EF92FF920F931F935D
:1000F000CF93DF93161617061CF57C01EC01660FF3
:10010000771FE60EF71E8E0189919991DDD22FE1BE
:1001100081EA97E0215080409040E1F700C0000064
:10012000F80180819181EDD2FFE121EA87E0F15071
:1001300020408040E1F700C00000CE15DF0519F730
:10014000DF91CF911F910F91FF90EF900895F89458
:100150002AE28CE29AE0215080409040E1F70000D2
:100160006091063E7091073E6F5F7F4F6093063E41
:100170007093073E8DE09EE397DF6091063E70919D
:10018000073E8DE09EE3B0DF2EE531E040E050E039
:1001900065E171E080E090E0D7D22EE531E040E00B
:1001A00050E061E771E080E090E0CED22EE531E0F2
:1001B00040E050E06FE971E080E090E0C5D22EE5CC
:1001C00031E040E050E068EB71E080E090E0BCD2CC
:1001D0002EE531E040E050E06FE971E080E090E032
:1001E000B3D22EE531E040E050E061E771E080E01D
:1001F00090E0AAD220E233E040E050E065E271E016
:1002000080E090E0A1D225E78FE893E02150804084
:100210009040E1F72EE531E040E050E065E271E02A
:1002200080E090E091D22EE531E040E050E061E7DF
:1002300071E080E090E088D22EE531E040E050E0CF
:100240006FE971E080E090E07FD22EE531E040E0A0
:1002500050E068EB71E080E090E076D22EE531E08E
:1002600040E050E06FE971E080E090E06DD22EE573
:1002700031E040E050E061E771E080E090E064D27E
:1002800020E233E040E050E065E171E080E090E0A2
:100290005BD278940895B9D16ED3C3E0D0E08FE0FB
:1002A000EED12FE78AE196E0215080409040E1F7BF
:1002B00000C0000080E0E3D12FE78AE196E0215002
:1002C00080409040E1F700C00000219741F7109274
:1002D000083E1092063E1092073E80E0D0D181E0A9
:1002E00090E08093043E9093053E31DFFFCF209154
:1002F000043E3091053E2130310591F08230910568
:1003000039F481E090E08093093E90930A3E08958D
:10031000039731F481E090E080930B3E90930C3E84
:1003200008952091043E3091053E2130310571F051
:100330008230910529F41092093E10920A3E0895E8
:10034000039721F410920B3E10920C3E089574D145
:10035000F5D161E971E087E791E017D00895F7DF03
:100360009ADF84DE892BE9F78DDE892BD1F324E532
:1003700088E594E1215080409040E1F700C000C042
:1003800081DE892B71F387DFECCFA0E4B4E021E0BC
:1003900012962C931297E0E2F4E024E0228322E00C
:1003A00012962C93129728E0228329E050962C93E2
:1003B0005097228B51962C93238B80932F3E9093B2
:1003C000303E60932D3E70932E3E78940895813098
:1003D000910589F01CF4892B39F028C082309105F1
:1003E00099F00397C9F022C09091480481E08927D1
:1003F000817090E00895809128048695869591E01B
:100400008927817090E0089580914804869591E055
:100410008927817090E008958091280486958695BB
:10042000869591E08927817090E0089580E090E0C2
:100430000895CF93DF93EC018DE890E20197F1F7F7
:100440000000CE01C4DF892B39F0E0912F3EF091FE
:10045000303ECE01099506C0E0912D3EF0912E3E32
:10046000CE010995DF91CF9108951F920F920FB69B
:100470000F9211242F933F934F935F936F937F932A
:100480008F939F93AF93BF93EF93FF938091090452
:1004900080FF03C080E090E0CCDF8091090482FF00
:1004A00003C081E090E0C5DF8091090481FF03C0B3
:1004B00082E090E0BEDF8091090483FF03C083E007
:1004C00090E0B7DF8FEF80930904FF91EF91BF9128
:1004D000AF919F918F917F916F915F914F913F91DC
:1004E0002F910F900FBE0F901F9018951F920F9293
:1004F0000FB60F9211242F933F934F935F936F93F7
:100500007F938F939F93AF93BF93EF93FF938091CC
:10051000290480FF03C080E090E08BDF80912904F4
:1005200082FF03C081E090E084DF8091290481FF95
:1005300003C082E090E07DDF8091290483FF03C047
:1005400083E090E076DF8FEF80932904FF91EF91B5
:10055000BF91AF919F918F917F916F915F914F91DB
:100560003F912F910F900FBE0F901F9018951F92E3
:100570000F920FB60F9211242F933F934F935F93D7
:100580006F937F938F939F93AF93BF93EF93FF935B
:100590008091490480FF03C080E090E04ADF8091B1
:1005A000490482FF03C081E090E043DF8091490469
:1005B00081FF03C082E090E03CDF8091490483FF2B
:1005C00003C083E090E035DF8FEF80934904FF9113
:1005D000EF91BF91AF919F918F917F916F915F91BB
:1005E0004F913F912F910F900FBE0F901F90189534
:1005F00070E0FC0160837183E0E0F0E18087918727
:100600008DE984BF83E080830895CF93DF93809149
:100610000114D82F80E0C82F80910014C82B219698
:100620006D2F81E094E1E4DF6C2F80E094E1E0DF66
:10063000CE01DF91CF910895E0E0F4E030E4318322
:1006400020E8218382E0818394E0918336832683AE
:100650008683968338E0318320E12183A0E2B4E0F1
:1006600091E011969C93119711968C931197368374
:10067000268316969C93169716968C93089580FF62
:1006800004C090E49093050403C090E490930604A2
:1006900081FF04C090E89093050403C090E8909314
:1006A000060482FF04C092E09093050403C092E028
:1006B0009093060483FF04C084E0809305040895AA
:1006C00084E08093060408958130910571F01CF454
:1006D000892B39F008958230910559F0039769F01C
:1006E000089588E080930504089580E180930504CF
:1006F000089581E080932504089582E08093250485
:1007000008958130910571F01CF4892B39F008951A
:100710008230910559F0039769F0089588E080933D
:100720000604089580E180930604089581E0809393
:100730002604089582E0809326040895E0E0F4E022
:1007400080E28183868308954F925F926F927F92B9
:100750008F929F92AF92BF92CF92DF92EF92FF92D1
:100760000F931F93CF93DF936B017C0129013A0113
:1007700060E472E48FE090E0A70196015CD049014B
:100780005A0168E076E482E090E0A701960153D038
:1007900069017A01A8EEB3E0A301920168D08B0150
:1007A0009C011616170618061906A4F540E050E03D
:1007B000BA01E0E0F4E0C0E2DC2FD5831C141D0494
:1007C0001E041F0404F580E090E0DC0100000196A7
:1007D000A11DB11DC816D906EA06FB06B9F715C05A
:1007E00000000196A11DB11DC816D906EA06FB0638
:1007F000B9F7480D591D6A1D7B1D40175107620747
:100800007307DCF207C0C683F4CFC68380E090E0B4
:10081000DC01E6CFDF91CF911F910F91FF90EF9018
:10082000DF90CF90BF90AF909F908F907F906F9010
:100830005F904F900895052E97FB16F400940FD00B
:1008400057FD05D01ED007FC02D046F408C05095D5
:100850004095309521953F4F4F4F5F4F08959095AC
:100860008095709561957F4F8F4F9F4F08952BD046
:10087000A59F900DB49F900DA49F800D911D1124F4
:100880000895A1E21A2EAA1BBB1BFD010DC0AA1FD1
:10089000BB1FEE1FFF1FA217B307E407F50720F0E9
:1008A000A21BB30BE40BF50B661F771F881F991F64
:1008B0001A9469F760957095809590959B01AC01AD
:1008C000BD01CF010895A29FB001B39FC001A39FB6
:1008D00001D0B29F700D811D1124911D08958F923A
:1008E0009F92AF92BF92CF92DF92EF92FF92CF93FF
:1008F000DF93EC01688179818A819B8161157105A3
:100900008105910521F464E279ED8BE597E02DE115
:1009100033EF41E050E08FDF49015A019B01AC0108
:10092000A7EAB1E4A4DF6B017C01ACEEB4EFA50152
:1009300094012ED0DC01CB018C0D9D1DAE1DBF1D81
:10094000B7FF03C00197A109B04888839983AA83A0
:10095000BB839F77DF91CF91FF90EF90DF90CF9097
:10096000BF90AF909F908F900895B9DF089580E079
:100970009EE3B5DF0895A0E0B0E08093003E909341
:10098000013EA093023EB093033E0895B7FF6FCFA0
:0C0990006EDF821B930B0895F894FFCFDC
:04099C000100000056
:00000001FF
