:1000000019C033C032C047C287C2C7C22EC02DC07C
:100010002CC02BC02AC029C028C027C026C025C09C
:1000200024C023C022C021C020C01FC01EC01DC0CC
:100030001CC01BC011241FBECFEFCDBFDFE3DEBF4E
:100040001EE3A0E0BEE3E8E5FCE002C005900D92EF
:10005000AA36B107D9F72EE3AAE6BEE301C01D9286
:10006000A838B207E1F73CD1F5C5CACF81E090E0EE
:1000700020916A3E30916B3E2130310511F080E0D5
:1000800090E008958091783E9091793E892B31F0EF
:1000900080917A3E90917B3E892B79F48091743ED9
:1000A0009091753E892B61F08091763E9091773EDC
:1000B000892B49F081E090E0089580E090E0089578
:1000C00082E090E0089582E090E008950F931F93FE
:1000D000CF93DF9316161706A4F48C01EC01660F7C
:1000E000771F060F171FA1D583709078992324F4EA
:1000F00001978C6F9F6F019689939993C017D107D1
:1001000091F7DF91CF911F910F910895EF92FF9298
:100110000F931F93CF93DF93161617061CF57C01E0
:10012000EC01660F771FE60EF71E8E0189919991FB
:10013000E1D22FE181EA97E0215080409040E1F741
:1001400000C00000F80180819181F1D2FFE121EA35
:1001500087E0F15020408040E1F700C00000CE155C
:10016000DF0519F7DF91CF911F910F91FF90EF906D
:100170000895F8942AE28CE29AE021508040904061
:10018000E1F7000060917C3E70917D3E6F5F7F4F94
:1001900060937C3E70937D3E8091703E9091713E65
:1001A00095DF60917C3E70917D3E8091703E909194
:1001B000713EACDF69E070E086E49EE3B3D06FE0AF
:1001C00070E08AE09EE3AED078940895EC01F89454
:1001D00032D22FD503E010E08FE067D22FE78AE11B
:1001E00096E0215080409040E1F700C0000080E0A0
:1001F0005CD22FE78AE196E0215080409040E1F701
:1002000000C000000150110939F710926E3E1092A3
:100210006F3E10927C3E10927D3EC093723ED09312
:10022000733E209719F0219741F00DC088E090E0CF
:1002300080936C3E90936D3E06C080E190E0809389
:100240006C3E90936D3E8091703E9091713E1CD4B7
:1002500080917E3E90917F3E17D4C0916C3ED091AC
:100260006D3ECE0179D38093703E9093713ECE0166
:1002700073D380937E3E90937F3E80916E3E15D2E5
:1002800081E090E080936A3E90936B3E72DFFFCFF7
:1002900020916A3E30916B3E2130310549F0880F44
:1002A000991FFC01EC58F14C81E090E08083918330
:1002B000089520916A3E30916B3E2130310539F02E
:1002C000880F991FFC01EC58F14C1082118208959F
:1002D000C9D14AD269E571E088E491E06CD0089513
:1002E000F7DFC4DE892BE9F7CDDEEC010297C9F315
:1002F00024E588E594E1215080409040E1F700C07A
:1003000000C0C0DEC817D90761F7209719F0219700
:1003100029F0E7CF80E090E059DFE3CF81E090E083
:1003200055DFDFCFCF92DF92EF92FF920F931F93B3
:10033000CF93DF9316161706ACF56B01C82FD92F94
:10034000E12CF12C0AE010E0FE016881798116169B
:1003500017062CF08A819B810A976CF41CC02A81B5
:100360003B81032E000C440B550B072E000C880B11
:10037000990B00D210C020E030E08DE890E20197A8
:10038000F1F700002F5F3F4F82819381B80169D25E
:100390002617370794F39FEFE91AF90A2496CE142B
:1003A000DF0491F6DF91CF911F910F91FF90EF90B5
:1003B000DF90CF900895A0E4B4E021E012962C9352
:1003C0001297E0E2F4E024E0228322E012962C93DC
:1003D000129728E0228329E050962C935097228B85
:1003E00051962C93238B8093823E9093833E60930F
:1003F000803E7093813E789408958130910589F014
:100400001CF4892B39F028C08230910599F00397AC
:10041000C9F022C09091480481E08927817090E062
:100420000895809128048695869591E089278170AA
:1004300090E0089580914804869591E08927817025
:1004400090E008958091280486958695869591E0A0
:100450008927817090E0089580E090E00895CF931F
:10046000DF93EC018DE890E20197F1F70000CE01F7
:10047000C4DF892B39F0E091823EF091833ECE01BA
:10048000099506C0E091803EF091813ECE0109952C
:10049000DF91CF9108951F920F920FB60F92112402
:1004A0002F933F934F935F936F937F938F939F937C
:1004B000AF93BF93EF93FF938091090480FF03C034
:1004C00080E090E0CCDF8091090482FF03C081E0EE
:1004D00090E0C5DF8091090481FF03C082E090E0D5
:1004E000BEDF8091090483FF03C083E090E0B7DFA3
:1004F0008FEF80930904FF91EF91BF91AF919F918E
:100500008F917F916F915F914F913F912F910F90BC
:100510000FBE0F901F9018951F920F920FB60F925B
:1005200011242F933F934F935F936F937F938F93F8
:100530009F93AF93BF93EF93FF938091290480FF24
:1005400003C080E090E08BDF8091290482FF03C02C
:1005500081E090E084DF8091290481FF03C082E084
:1005600090E07DDF8091290483FF03C083E090E069
:1005700076DF8FEF80932904FF91EF91BF91AF91C8
:100580009F918F917F916F915F914F913F912F91AB
:100590000F900FBE0F901F9018951F920F920FB6DD
:1005A0000F9211242F933F934F935F936F937F93F9
:1005B0008F939F93AF93BF93EF93FF9380914904E1
:1005C00080FF03C080E090E04ADF8091490482FF11
:1005D00003C081E090E043DF8091490481FF03C0C4
:1005E00082E090E03CDF8091490483FF03C083E018
:1005F00090E035DF8FEF80934904FF91EF91BF9139
:10060000AF919F918F917F916F915F914F913F91AA
:100610002F910F900FBE0F901F90189570E0FC0166
:1006200060837183E0E0F0E1808791878DE984BF8A
:1006300083E080830895CF93DF9380910114D82FB6
:1006400080E0C82F80910014C82B21966D2F81E087
:1006500094E1E4DF6C2F80E094E1E0DFCE01DF91F4
:10066000CF910895E0E0F4E030E4318320E8218385
:1006700082E0818394E09183368326838683968308
:1006800038E0318320E12183A0E2B4E091E01196CB
:100690009C93119711968C93119736832683169607
:1006A0009C93169716968C93089580FF04C090E44F
:1006B0009093050403C090E49093060481FF04C066
:1006C00090E89093050403C090E89093060482FF9D
:1006D00004C092E09093050403C092E09093060456
:1006E00083FF04C084E080930504089584E0809330
:1006F000060408958130910571F01CF4892B39F0BE
:1007000008958230910559F0039769F0089588E0C3
:1007100080930504089580E180930504089581E0A5
:1007200080932504089582E0809325040895813004
:10073000910571F01CF4892B39F0089582309105F0
:1007400059F0039769F0089588E0809306040895AE
:1007500080E180930604089581E080932604089543
:1007600082E0809326040895E0E0F4E080E2818353
:10077000868308954F925F926F927F928F929F929D
:10078000AF92BF92CF92DF92EF92FF920F931F939F
:10079000CF93DF936B017C0129013A0160E472E49D
:1007A0008FE090E0A70196016FD049015A0168E0FF
:1007B00076E482E090E0A701960166D069017A01B3
:1007C000A8EEB3E0A30192017BD08B019C01161629
:1007D000170618061906A4F540E050E0BA01E0E05B
:1007E000F4E0C0E2DC2FD5831C141D041E041F049A
:1007F00004F580E090E0DC0100000196A11DB11D30
:10080000C816D906EA06FB06B9F715C0000001961E
:10081000A11DB11DC816D906EA06FB06B9F7480D99
:10082000591D6A1D7B1D4017510762077307DCF2D3
:1008300007C0C683F4CFC68380E090E0DC01E6CF3A
:10084000DF91CF911F910F91FF90EF90DF90CF90AC
:10085000BF90AF909F908F907F906F905F904F90E0
:10086000089597FB072E16F4009406D077FD08D064
:1008700031D007FC05D03EF4909581959F4F0895A7
:10088000709561957F4F0895052E97FB16F400949F
:100890000FD057FD05D032D007FC02D046F408C077
:1008A00050954095309521953F4F4F4F5F4F08959C
:1008B00090958095709561957F4F8F4F9F4F0895CC
:1008C0003FD0A59F900DB49F900DA49F800D911DCA
:1008D00011240895AA1BBB1B51E107C0AA1FBB1F0F
:1008E000A617B70710F0A61BB70B881F991F5A95BC
:1008F000A9F780959095BC01CD010895A1E21A2E2B
:10090000AA1BBB1BFD010DC0AA1FBB1FEE1FFF1FB3
:10091000A217B307E407F50720F0A21BB30BE40B03
:10092000F50B661F771F881F991F1A9469F760954A
:100930007095809590959B01AC01BD01CF01089504
:10094000A29FB001B39FC001A39F01D0B29F700DC1
:10095000811D1124911D08950F931F93CF93DF9351
:100960008230910510F482E090E0E091863EF091B3
:10097000873E20E030E0A0E0B0E0309719F1408100
:1009800051810281138148175907C8F084179507D0
:1009900069F4109731F012960C93129713961C93EA
:1009A00027C00093863E1093873E22C02115310553
:1009B00019F04217530718F49A01BD01EF01DF0146
:1009C000F801DBCF21153105F9F0281B390B243054
:1009D000310580F48A819B816115710521F0FB014D
:1009E0008283938304C08093863E9093873EFE016A
:1009F000329644C0FE01E20FF31F8193919322507F
:100A00003109288339833AC02091843E3091853E54
:100A1000232B41F42091023E3091033E2093843EEB
:100A20003093853E2091003E3091013E21153105E5
:100A300041F42DB73EB74091043E5091053E241B32
:100A4000350BE091843EF091853EE217F307A0F468
:100A50002E1B3F0B2817390778F0AC014E5F5F4F14
:100A60002417350748F04E0F5F1F4093843E509384
:100A7000853E8193919302C0E0E0F0E0CF01DF91E9
:100A8000CF911F910F910895CF93DF93009709F4B1
:100A900081C0FC01329712821382A091863EB091F0
:100AA000873E109781F420813181820F931F20911E
:100AB000843E3091853E2817390751F5E093843EF6
:100AC000F093853E67C0ED0120E030E0CE17DF07F0
:100AD00040F44A815B819E0141155105F1F0EA0124
:100AE000F5CFC283D38340815181840F951FC817EE
:100AF000D90759F488819981840F951F02968083C4
:100B000091838A819B81828393832115310529F406
:100B1000E093863EF093873E3DC0E901EA83FB8384
:100B200049915991C40FD51FEC17FD0761F48081DD
:100B30009181840F951F0296E901888399838281B0
:100B400093818A839B83E0E0F0E012968D919C91E3
:100B50001397009719F0FD01DC01F7CF8D919C915F
:100B600011979D012E5F3F4F820F931F2091843E6E
:100B70003091853E2817390769F4309729F410928F
:100B8000863E1092873E02C012821382A093843E5A
:100B9000B093853EDF91CF9108958F929F92AF924F
:100BA000BF92CF92DF92EF92FF92CF93DF93EC014F
:100BB000688179818A819B81611571058105910523
:100BC00021F464E279ED8BE597E02DE133EF41E02C
:100BD00050E05ADE49015A019B01AC01A7EAB1E499
:100BE0006FDE6B017C01ACEEB4EFA50194012ED059
:100BF000DC01CB018C0D9D1DAE1DBF1DB7FF03C0D9
:100C00000197A109B04888839983AA83BB839F7702
:100C1000DF91CF91FF90EF90DF90CF90BF90AF909A
:100C20009F908F900895B9DF089586E09EE3B5DF29
:100C30000895A0E0B0E08093063E9093073EA09315
:100C4000083EB093093E0895B7FF3ACE39DE821BC5
:080C5000930B0895F894FFCF07
:100C58000000883E20000100000015015E017101BE
:100C68005E019F015E01B8015E019F015E01710195
:100C78005E012501200300005E0125015E0171016E
:100C88005E019F015E01B8015E019F015E01710175
:100C98005E01150120030501FA005D017D00B80120
:100CA8007D000B027D0000007D00B8017D00000082
:0A0CB8007D000000FA000B027D0031
:00000001FF
