S00C00004C3442342E7372656322
S113000019C033C032C060C2A0C2E0C22EC02DC02D
S11300102CC02BC02AC029C028C027C026C025C098
S113002024C023C022C021C020C01FC01EC01DC0C8
S11300301CC01BC011241FBECFEFCDBFDFE3DEBF4A
S11300401EE3A0E0BEE3E2E0FBE002C005900D92F7
S1130050A838B107D9F72EE3A8E8BEE301C01D9282
S1130060A03EB207E1F76ED14AC5CACF81E090E065
S11300702091883E3091893E2130310511F080E095
S113008090E008958091B63E9091B73E892B31F06F
S11300908091B83E9091B93E892B79F48091B23E1B
S11300A09091B33E892B61F08091B43E9091B53E1E
S11300B0892B49F081E090E0089580E090E0089574
S11300C082E090E0089582E090E008956FE070E0AF
S11300D084E09EE3DFD3089569E070E080E49EE36A
S11300E0D9D308950F931F93CF93DF931616170652
S11300F0A4F48C01EC01660F771F060F171FEAD4D6
S113010083709078992324F401978C6F9F6F0196E4
S113011089939993C017D10791F7DF91CF911F91DC
S11301200F910895EF92FF920F931F93CF93DF9354
S1130130161617061CF57C01EC01660F771FE60EF8
S1130140F71E8E0189919991EED22FE181EA97E011
S1130150215080409040E1F700C00000F801808108
S11301609181FED2FFE121EA87E0F15020408040F6
S1130170E1F700C00000CE15DF0519F7DF91CF913C
S11301801F910F91FF90EF90089538D12AE28CE2ED
S11301909AE0215080409040E1F700006091BA3E1F
S11301A07091BB3E6F5F7F4F6093BA3E7093BB3ECE
S11301B010928C3E10928D3E80E99EE3B3DF69E09D
S11301C070E084E69EE366D301D10895EC0116D174
S11301D04BD284D403E010E08FE080D22FE78AE191
S11301E096E0215080409040E1F700C0000080E09C
S11301F075D22FE78AE196E0215080409040E1F7E4
S113020000C000000150110939F781E090E08093AB
S1130210883E9093893E10928E3E10928F3E1092AB
S1130220BA3E1092BB3EC093B03ED093B13E2097ED
S113023019F0219741F00DC083E090E080938A3E4D
S113024090938B3E06C080E190E080938A3E909329
S11302508B3E80E043D260918A3E70918B3E80E970
S11302609EE340DF92DFFFCF2091883E3091893EAC
S11302702130310551F0880F991FFC01EE54F14CE7
S113028081E090E08083918308954DD34CD208950A
S1130290CF93DF932091883E3091893E2130310500
S11302A041F0880F991FFC01EE54F14C1082118229
S11302B03EC0EC0138D354D220918C3E30918D3E17
S11302C0C901880F991FFC01E454F14CC083D18308
S11302D0FC01E057F14C80819181C817D90731F5B1
S11302E02F5F3F4F20938C3E30938D3E8091BA3EDA
S11302F09091BB3E28173907D1F480918E3E90919E
S11303008F3E019680938E3E90938F3EE7D120914D
S1130310BA3E3091BB3E80918A3E90918B3E281725
S1130320390711F4D3DE03C030DF01C0D5DEDF911D
S1130330CF910895B0D131D268E471E084E391E0C3
S113034023D00895F7DF92DE892BE9F79BDEEC01D9
S11303500297C9F324E588E594E121508040904058
S1130360E1F700C000C08EDEC817D90761F72097F7
S113037019F0219729F0E7CF80E090E027DFE3CF61
S113038081E090E023DFDFCFA0E4B4E021E0129627
S11303902C931297E0E2F4E024E0228322E0129608
S11303A02C93129728E0228329E050962C9350979F
S11303B0228B51962C93238B8093DE3E9093DF3EC9
S11303C06093DC3E7093DD3E78940895A0E4B4E03D
S11303D050968C915097816050968C935097E0E2A0
S11303E0F4E082898160828B51968C91519781606F
S11303F051968C9383898160838B0895A0E4B4E043
S113040050968C9150978E7F50968C935097E0E243
S1130410F4E082898E7F828B51968C9151978E7FE6
S113042051968C9383898E7F838B089581309105B7
S113043089F01CF4892B39F028C08230910599F099
S11304400397C9F022C09091480481E08927817004
S113045090E00895809128048695869591E08927F7
S1130460817090E0089580914804869591E08927F1
S1130470817090E0089580912804869586958695EC
S113048091E08927817090E0089580E090E00895DC
S1130490CF93DF93EC018DE890E20197F1F7000030
S11304A0CE01C4DF892B39F0E091DE3EF091DF3ECE
S11304B0CE01099506C0E091DC3EF091DD3ECE010F
S11304C00995DF91CF9108951F920F920FB60F9265
S11304D011242F933F934F935F936F937F938F9345
S11304E09F93AF93BF93EF93FF938091090480FF91
S11304F003C080E090E0CCDF8091090482FF03C058
S113050081E090E0C5DF8091090481FF03C082E0AF
S113051090E0BEDF8091090483FF03C083E090E094
S1130520B7DF8FEF80930904FF91EF91BF91AF91F3
S11305309F918F917F916F915F914F913F912F91F7
S11305400F900FBE0F901F9018951F920F920FB629
S11305500F9211242F933F934F935F936F937F9345
S11305608F939F93AF93BF93EF93FF93809129044D
S113057080FF03C080E090E08BDF8091290482FF3C
S113058003C081E090E084DF8091290481FF03C0EF
S113059082E090E07DDF8091290483FF03C083E043
S11305A090E076DF8FEF80932904FF91EF91BF9164
S11305B0AF919F918F917F916F915F914F913F91F7
S11305C02F910F900FBE0F901F9018951F920F92AE
S11305D00FB60F9211242F933F934F935F936F9312
S11305E07F938F939F93AF93BF93EF93FF938091E8
S11305F0490480FF03C080E090E04ADF8091490411
S113060082FF03C081E090E043DF8091490481FFD1
S113061003C082E090E03CDF8091490483FF03C083
S113062083E090E035DF8FEF80934904FF91EF91F1
S1130630BF91AF919F918F917F916F915F914F91F6
S11306403F912F910F900FBE0F901F90189570E05F
S1130650FC0160837183E0E0F0E1808791878DE99C
S113066084BF83E080830895CF93DF938091011446
S1130670D82F80E0C82F80910014C82B21966D2FAD
S113068081E094E1E4DF6C2F80E094E1E0DFCE01CF
S1130690DF91CF910895E0E0F4E030E4318320E885
S11306A0218382E0818394E0918336832683868349
S11306B0968338E0318320E12183A0E2B4E091E025
S11306C011969C93119711968C93119736832683D8
S11306D016969C93169716968C93089580FF04C0E3
S11306E090E49093050403C090E49093060481FF82
S11306F004C090E89093050403C090E89093060426
S113070082FF04C092E09093050403C092E09093AA
S1130710060483FF04C084E080930504089584E004
S11307208093060408958130910571F01CF4892B9F
S113073039F008958230910559F0039769F00895CE
S113074088E080930504089580E18093050408956A
S113075081E080932504089582E080932504089520
S11307608130910571F01CF4892B39F008958230A1
S1130770910559F0039769F0089588E08093060481
S1130780089580E180930604089581E0809326040F
S1130790089582E0809326040895E0E0F4E080E286
S11307A08183868308954F925F926F927F928F9296
S11307B09F92AF92BF92CF92DF92EF92FF920F93EC
S11307C01F93CF93DF936B017C0129013A0160E40D
S11307D072E48FE090E0A7019601CCD049015A0160
S11307E068E076E482E090E0A7019601C3D0690155
S11307F07A01A8EEB3E0A3019201D8D08B019C0149
S11308001616170618061906A4F540E050E0BA01BA
S1130810E0E0F4E0C0E2DC2FD5831C141D041E04C8
S11308201F0404F580E090E0DC0100000196A11DA6
S1130830B11DC816D906EA06FB06B9F715C00000B3
S11308400196A11DB11DC816D906EA06FB06B9F723
S1130850480D591D6A1D7B1D401751076207730718
S1130860DCF207C0C683F4CFC68380E090E0DC01ED
S1130870E6CFDF91CF911F910F91FF90EF90DF9022
S1130880CF90BF90AF909F908F907F906F905F902C
S11308904F900895CF92DF92EF92FF920F931F93A0
S11308A0CF93DF9316161706ACF56B01C82FD92F1B
S11308B0E12CF12C0AE010E0FE0168817981161622
S11308C017062CF08A819B810A976CF41CC02A813C
S11308D03B81032E000C440B550B072E000C880B98
S11308E0990B61DF10C020E030E08DE890E20197C1
S11308F0F1F700002F5F3F4F82819381B80127D029
S11309002617370794F39FEFE91AF90A2496CE14B1
S1130910DF0491F6DF91CF911F910F91FF90EF903B
S1130920DF90CF9008958230910541F08330910596
S113093041F0019749F481E090E0089582E090E06D
S1130940089583E090E0089580E090E0089597FB97
S1130950072E16F4009406D077FD08D031D007FC9A
S113096005D03EF4909581959F4F089570956195BB
S11309707F4F0895052E97FB16F400940FD057FD72
S113098005D032D007FC02D046F408C050954095FB
S1130990309521953F4F4F4F5F4F08959095809527
S11309A0709561957F4F8F4F9F4F08953FD0A59FBE
S11309B0900DB49F900DA49F800D911D1124089556
S11309C0AA1BBB1B51E107C0AA1FBB1FA617B70771
S11309D010F0A61BB70B881F991F5A95A9F780958D
S11309E09095BC01CD010895A1E21A2EAA1BBB1B50
S11309F0FD010DC0AA1FBB1FEE1FFF1FA217B307E7
S1130A00E407F50720F0A21BB30BE40BF50B661FFC
S1130A10771F881F991F1A9469F7609570958095C0
S1130A2090959B01AC01BD01CF010895A29FB00137
S1130A30B39FC001A39F01D0B29F700D811D1124EB
S1130A40911D08958F929F92AF92BF92CF92DF92A1
S1130A50EF92FF92CF93DF93EC01688179818A81D1
S1130A609B81611571058105910521F464E279ED9D
S1130A708BE597E02DE133EF41E050E07BDF490166
S1130A805A019B01AC01A7EAB1E490DF6B017C0140
S1130A90ACEEB4EFA50194012ED0DC01CB018C0D9A
S1130AA09D1DAE1DBF1DB7FF03C00197A109B0482E
S1130AB088839983AA83BB839F77DF91CF91FF902B
S1130AC0EF90DF90CF90BF90AF909F908F9008955C
S1130AD0B9DF089580E09EE3B5DF0895A0E0B0E0BB
S1130AE08093003E9093013EA093023EB093033E58
S1130AF00895B7FF5BCF5ADF821B930B0895F894D8
S1050B00FFCF21
S1130B020100000015015E0171015E019F015E0199
S1130B12B8015E019F015E0171015E01250120039E
S1130B2200005E0125015E0171015E019F015E010B
S1130B32B8015E019F015E0171015E01150120038E
S1130B42E900F401B800F4019B00F4017400B0045C
S1130B52000000000000000000000000000000008F
S1130B62000000000501FA005D017D00B8017D006E
S1130B720B027D0000007D00B8017D0000007D00B5
S10B0B820000FA000B027D00E3
S9030000FC
